{
  "contractName": "M",
  "abi": [
    {
      "constant": true,
      "inputs": [
        {
          "name": "_tokenId",
          "type": "uint256"
        }
      ],
      "name": "getEntity",
      "outputs": [
        {
          "name": "isBreeding",
          "type": "bool"
        },
        {
          "name": "isReady",
          "type": "bool"
        },
        {
          "name": "cooldownIndex",
          "type": "uint256"
        },
        {
          "name": "nextActionAt",
          "type": "uint256"
        },
        {
          "name": "matingWithId",
          "type": "uint256"
        },
        {
          "name": "birthTime",
          "type": "uint256"
        },
        {
          "name": "breederId",
          "type": "uint256"
        },
        {
          "name": "seederId",
          "type": "uint256"
        },
        {
          "name": "generation",
          "type": "uint256"
        },
        {
          "name": "dna",
          "type": "uint256"
        }
      ],
      "payable": false,
      "stateMutability": "view",
      "type": "function"
    },
    {
      "constant": true,
      "inputs": [],
      "name": "totalSupply",
      "outputs": [
        {
          "name": "",
          "type": "uint256"
        }
      ],
      "payable": false,
      "stateMutability": "view",
      "type": "function"
    },
    {
      "constant": true,
      "inputs": [
        {
          "name": "_tokenId",
          "type": "uint256"
        }
      ],
      "name": "ownerOf",
      "outputs": [
        {
          "name": "owner",
          "type": "address"
        }
      ],
      "payable": false,
      "stateMutability": "view",
      "type": "function"
    },
    {
      "constant": true,
      "inputs": [
        {
          "name": "_tokenId",
          "type": "uint256"
        }
      ],
      "name": "getAuction",
      "outputs": [
        {
          "name": "seller",
          "type": "address"
        },
        {
          "name": "startingPrice",
          "type": "uint256"
        },
        {
          "name": "endingPrice",
          "type": "uint256"
        },
        {
          "name": "duration",
          "type": "uint256"
        },
        {
          "name": "startedAt",
          "type": "uint256"
        }
      ],
      "payable": false,
      "stateMutability": "view",
      "type": "function"
    },
    {
      "constant": true,
      "inputs": [
        {
          "name": "_tokenId",
          "type": "uint256"
        }
      ],
      "name": "getCurrentPrice",
      "outputs": [
        {
          "name": "",
          "type": "uint256"
        }
      ],
      "payable": false,
      "stateMutability": "view",
      "type": "function"
    }
  ],
  "bytecode": "0x608060405234801561001057600080fd5b50610342806100206000396000f3fe60806040526004361061006d576000357c0100000000000000000000000000000000000000000000000000000000900463ffffffff16806318160ddd146100725780636352211e1461009d57806378bd793514610118578063b3a27842146101af578063c55d0f5614610245575b600080fd5b34801561007e57600080fd5b50610087610294565b6040518082815260200191505060405180910390f35b3480156100a957600080fd5b506100d6600480360360208110156100c057600080fd5b810190808035906020019092919050505061029e565b604051808273ffffffffffffffffffffffffffffffffffffffff1673ffffffffffffffffffffffffffffffffffffffff16815260200191505060405180910390f35b34801561012457600080fd5b506101516004803603602081101561013b57600080fd5b81019080803590602001909291905050506102a8565b604051808673ffffffffffffffffffffffffffffffffffffffff1673ffffffffffffffffffffffffffffffffffffffff1681526020018581526020018481526020018381526020018281526020019550505050505060405180910390f35b3480156101bb57600080fd5b506101e8600480360360208110156101d257600080fd5b81019080803590602001909291905050506102ca565b604051808b1515151581526020018a1515151581526020018981526020018881526020018781526020018681526020018581526020018481526020018381526020018281526020019a505050505050505050505060405180910390f35b34801561025157600080fd5b5061027e6004803603602081101561026857600080fd5b810190808035906020019092919050505061030c565b6040518082815260200191505060405180910390f35b6000610100905090565b6000819050919050565b6000806000806000339450600093506001925085915085905091939590929450565b60008060008060008060008060008060019950600198506000975060019650600295508a94508a93506005925060069150600790509193959799509193959799565b600081905091905056fea165627a7a7230582066ad3647067f5ea404048d6cd41b77c6272c5649bdac7c2412af05696259bf2f0029",
  "source": "pragma solidity >=0.4.21 <0.6.0;\r\n\r\nimport './i/E.sol';\r\nimport './i/EE.sol';\r\n\r\ncontract M is E, EE {\r\n\r\n    function getEntity(\r\n        uint256 _tokenId\r\n    ) external view returns (\r\n        bool isBreeding,\r\n        bool isReady,\r\n        uint256 cooldownIndex,\r\n        uint256 nextActionAt,\r\n        uint256 matingWithId,\r\n        uint256 birthTime,\r\n        uint256 breederId,\r\n        uint256 seederId,\r\n        uint256 generation,\r\n        uint256 dna\r\n    ) {\r\n        isBreeding = true;\r\n        isReady = true;\r\n        cooldownIndex = uint256(0);\r\n        nextActionAt = uint256(1);\r\n        matingWithId = uint256(2);\r\n        birthTime = _tokenId;\r\n        breederId = _tokenId;\r\n        seederId = uint256(5);\r\n        generation = uint256(6);\r\n        dna = uint256(7);\r\n    }\r\n\r\n    function totalSupply() external view returns (uint256) {\r\n        return uint256(256);\r\n    }\r\n\r\n    function ownerOf(uint256 _tokenId) external view returns (address owner) {\r\n        return address(_tokenId);\r\n    }\r\n\r\n    function getAuction(\r\n        uint256 _tokenId\r\n    ) external view returns (\r\n        address seller,\r\n        uint256 startingPrice,\r\n        uint256 endingPrice,\r\n        uint256 duration,\r\n        uint256 startedAt\r\n    ) {\r\n        seller = msg.sender;\r\n        startingPrice = uint256(0);\r\n        endingPrice = uint256(1);\r\n        duration = _tokenId;\r\n        startedAt = _tokenId;\r\n    }\r\n\r\n    function getCurrentPrice(\r\n        uint256 _tokenId\r\n    ) external view returns (\r\n        uint256\r\n    ) {\r\n        return _tokenId;\r\n    }\r\n\r\n}\r\n",
  "sourcePath": "D:/work/WebStorm/crypt-oink-query/contracts/M.sol",
  "compiler": {
    "name": "solc",
    "version": "0.5.0+commit.1d4f565a.Emscripten.clang"
  },
  "schemaVersion": "3.0.6",
  "updatedAt": "2019-04-07T04:04:33.398Z",
  "devdoc": {
    "methods": {}
  },
  "userdoc": {
    "methods": {}
  }
}