{
  "contractName": "Q",
  "abi": [
    {
      "constant": true,
      "inputs": [],
      "name": "seedContract",
      "outputs": [
        {
          "name": "",
          "type": "address"
        }
      ],
      "payable": false,
      "stateMutability": "view",
      "type": "function",
      "signature": "0x63534dd8"
    },
    {
      "constant": true,
      "inputs": [],
      "name": "owner",
      "outputs": [
        {
          "name": "",
          "type": "address"
        }
      ],
      "payable": false,
      "stateMutability": "view",
      "type": "function",
      "signature": "0x8da5cb5b"
    },
    {
      "constant": true,
      "inputs": [],
      "name": "sellContract",
      "outputs": [
        {
          "name": "",
          "type": "address"
        }
      ],
      "payable": false,
      "stateMutability": "view",
      "type": "function",
      "signature": "0xc3d22fb6"
    },
    {
      "constant": true,
      "inputs": [],
      "name": "entityContract",
      "outputs": [
        {
          "name": "",
          "type": "address"
        }
      ],
      "payable": false,
      "stateMutability": "view",
      "type": "function",
      "signature": "0xdc771a41"
    },
    {
      "inputs": [
        {
          "name": "_entity",
          "type": "address"
        },
        {
          "name": "_sell",
          "type": "address"
        },
        {
          "name": "_seed",
          "type": "address"
        }
      ],
      "payable": false,
      "stateMutability": "nonpayable",
      "type": "constructor",
      "signature": "constructor"
    },
    {
      "constant": false,
      "inputs": [
        {
          "name": "_entity",
          "type": "address"
        },
        {
          "name": "_sell",
          "type": "address"
        },
        {
          "name": "_seed",
          "type": "address"
        }
      ],
      "name": "setAddress",
      "outputs": [],
      "payable": false,
      "stateMutability": "nonpayable",
      "type": "function",
      "signature": "0x3be08dab"
    },
    {
      "constant": false,
      "inputs": [
        {
          "name": "_owner",
          "type": "address"
        }
      ],
      "name": "setOwner",
      "outputs": [],
      "payable": false,
      "stateMutability": "nonpayable",
      "type": "function",
      "signature": "0x13af4035"
    },
    {
      "constant": false,
      "inputs": [],
      "name": "selfDestruct",
      "outputs": [],
      "payable": false,
      "stateMutability": "nonpayable",
      "type": "function",
      "signature": "0x9cb8a26a"
    },
    {
      "constant": true,
      "inputs": [
        {
          "name": "_tokenId",
          "type": "uint256"
        }
      ],
      "name": "getStruct",
      "outputs": [
        {
          "name": "totalSupply",
          "type": "uint256"
        },
        {
          "components": [
            {
              "name": "isBreeding",
              "type": "bool"
            },
            {
              "name": "isReady",
              "type": "bool"
            },
            {
              "name": "cooldownIndex",
              "type": "uint256"
            },
            {
              "name": "nextActionAt",
              "type": "uint256"
            },
            {
              "name": "matingWithId",
              "type": "uint256"
            },
            {
              "name": "birthTime",
              "type": "uint256"
            },
            {
              "name": "breederId",
              "type": "uint256"
            },
            {
              "name": "seederId",
              "type": "uint256"
            },
            {
              "name": "generation",
              "type": "uint256"
            },
            {
              "name": "dna",
              "type": "uint256"
            },
            {
              "name": "owner",
              "type": "address"
            }
          ],
          "name": "entity",
          "type": "tuple"
        },
        {
          "components": [
            {
              "name": "seller",
              "type": "address"
            },
            {
              "name": "startingPrice",
              "type": "uint256"
            },
            {
              "name": "endingPrice",
              "type": "uint256"
            },
            {
              "name": "duration",
              "type": "uint256"
            },
            {
              "name": "startedAt",
              "type": "uint256"
            },
            {
              "name": "currentPrice",
              "type": "uint256"
            }
          ],
          "name": "sell",
          "type": "tuple"
        },
        {
          "components": [
            {
              "name": "seller",
              "type": "address"
            },
            {
              "name": "startingPrice",
              "type": "uint256"
            },
            {
              "name": "endingPrice",
              "type": "uint256"
            },
            {
              "name": "duration",
              "type": "uint256"
            },
            {
              "name": "startedAt",
              "type": "uint256"
            },
            {
              "name": "currentPrice",
              "type": "uint256"
            }
          ],
          "name": "seed",
          "type": "tuple"
        }
      ],
      "payable": false,
      "stateMutability": "view",
      "type": "function",
      "signature": "0xcdfa8495"
    },
    {
      "constant": true,
      "inputs": [
        {
          "name": "_tokenId",
          "type": "uint256"
        }
      ],
      "name": "getArray",
      "outputs": [
        {
          "name": "one",
          "type": "bool[2]"
        },
        {
          "name": "two",
          "type": "address[3]"
        },
        {
          "name": "three",
          "type": "uint256[19]"
        }
      ],
      "payable": false,
      "stateMutability": "view",
      "type": "function",
      "signature": "0xab35ec63"
    }
  ],
  "bytecode": "0x60806040523480156200001157600080fd5b5060405160608062001bbb833981018060405262000033919081019062000155565b82600160006101000a81548173ffffffffffffffffffffffffffffffffffffffff021916908373ffffffffffffffffffffffffffffffffffffffff16021790555081600260006101000a81548173ffffffffffffffffffffffffffffffffffffffff021916908373ffffffffffffffffffffffffffffffffffffffff16021790555080600360006101000a81548173ffffffffffffffffffffffffffffffffffffffff021916908373ffffffffffffffffffffffffffffffffffffffff160217905550336000806101000a81548173ffffffffffffffffffffffffffffffffffffffff021916908373ffffffffffffffffffffffffffffffffffffffff160217905550505050620001df565b60006200014d8251620001cb565b905092915050565b6000806000606084860312156200016b57600080fd5b60006200017b868287016200013f565b93505060206200018e868287016200013f565b9250506040620001a1868287016200013f565b9150509250925092565b600073ffffffffffffffffffffffffffffffffffffffff82169050919050565b6000620001d882620001ab565b9050919050565b6119cc80620001ef6000396000f3fe608060405260043610610099576000357c0100000000000000000000000000000000000000000000000000000000900463ffffffff16806313af40351461009e5780633be08dab146100c757806363534dd8146100f05780638da5cb5b1461011b5780639cb8a26a14610146578063ab35ec631461015d578063c3d22fb61461019c578063cdfa8495146101c7578063dc771a4114610207575b600080fd5b3480156100aa57600080fd5b506100c560048036036100c091908101906112bb565b610232565b005b3480156100d357600080fd5b506100ee60048036036100e9919081019061130d565b6102d0565b005b3480156100fc57600080fd5b506101056103f3565b60405161011291906117db565b60405180910390f35b34801561012757600080fd5b50610130610419565b60405161013d9190611788565b60405180910390f35b34801561015257600080fd5b5061015b61043e565b005b34801561016957600080fd5b50610184600480360361017f91908101906114ae565b6104b2565b604051610193939291906117a3565b60405180910390f35b3480156101a857600080fd5b506101b1610a0c565b6040516101be91906117db565b60405180910390f35b3480156101d357600080fd5b506101ee60048036036101e991908101906114ae565b610a32565b6040516101fe949392919061182c565b60405180910390f35b34801561021357600080fd5b5061021c610dfb565b60405161022991906117f6565b60405180910390f35b6000809054906101000a900473ffffffffffffffffffffffffffffffffffffffff1673ffffffffffffffffffffffffffffffffffffffff163373ffffffffffffffffffffffffffffffffffffffff1614151561028d57600080fd5b806000806101000a81548173ffffffffffffffffffffffffffffffffffffffff021916908373ffffffffffffffffffffffffffffffffffffffff16021790555050565b6000809054906101000a900473ffffffffffffffffffffffffffffffffffffffff1673ffffffffffffffffffffffffffffffffffffffff163373ffffffffffffffffffffffffffffffffffffffff1614151561032b57600080fd5b82600160006101000a81548173ffffffffffffffffffffffffffffffffffffffff021916908373ffffffffffffffffffffffffffffffffffffffff16021790555081600260006101000a81548173ffffffffffffffffffffffffffffffffffffffff021916908373ffffffffffffffffffffffffffffffffffffffff16021790555080600360006101000a81548173ffffffffffffffffffffffffffffffffffffffff021916908373ffffffffffffffffffffffffffffffffffffffff160217905550505050565b600360009054906101000a900473ffffffffffffffffffffffffffffffffffffffff1681565b6000809054906101000a900473ffffffffffffffffffffffffffffffffffffffff1681565b6000809054906101000a900473ffffffffffffffffffffffffffffffffffffffff1673ffffffffffffffffffffffffffffffffffffffff163373ffffffffffffffffffffffffffffffffffffffff1614151561049957600080fd5b3373ffffffffffffffffffffffffffffffffffffffff16ff5b6104ba61112c565b6104c261114e565b6104ca611171565b6000600160009054906101000a900473ffffffffffffffffffffffffffffffffffffffff1673ffffffffffffffffffffffffffffffffffffffff166318160ddd6040518163ffffffff167c010000000000000000000000000000000000000000000000000000000002815260040160206040518083038186803b15801561055057600080fd5b505afa158015610564573d6000803e3d6000fd5b505050506040513d601f19601f8201168201806040525061058891908101906114d7565b9050610592611195565b61059b86610e21565b9050600160009054906101000a900473ffffffffffffffffffffffffffffffffffffffff1673ffffffffffffffffffffffffffffffffffffffff16636352211e876040518263ffffffff167c01000000000000000000000000000000000000000000000000000000000281526004016106149190611811565b60206040518083038186803b15801561062c57600080fd5b505afa158015610640573d6000803e3d6000fd5b505050506040513d601f19601f8201168201806040525061066491908101906112e4565b81610140019073ffffffffffffffffffffffffffffffffffffffff16908173ffffffffffffffffffffffffffffffffffffffff16815250506106a461120a565b6106ad87610f99565b9050600260009054906101000a900473ffffffffffffffffffffffffffffffffffffffff1673ffffffffffffffffffffffffffffffffffffffff1663c55d0f56886040518263ffffffff167c01000000000000000000000000000000000000000000000000000000000281526004016107269190611811565b60206040518083038186803b15801561073e57600080fd5b505afa158015610752573d6000803e3d6000fd5b505050506040513d601f19601f8201168201806040525061077691908101906114d7565b8160a001818152505061078761120a565b61079088610fd4565b9050600360009054906101000a900473ffffffffffffffffffffffffffffffffffffffff1673ffffffffffffffffffffffffffffffffffffffff1663c55d0f56896040518263ffffffff167c01000000000000000000000000000000000000000000000000000000000281526004016108099190611811565b60206040518083038186803b15801561082157600080fd5b505afa158015610835573d6000803e3d6000fd5b505050506040513d601f19601f8201168201806040525061085991908101906114d7565b8160a001818152505060408051908101604052808460000151151515158152602001846020015115151515815250965060606040519081016040528084610140015173ffffffffffffffffffffffffffffffffffffffff1673ffffffffffffffffffffffffffffffffffffffff168152602001836000015173ffffffffffffffffffffffffffffffffffffffff1673ffffffffffffffffffffffffffffffffffffffff168152602001826000015173ffffffffffffffffffffffffffffffffffffffff1673ffffffffffffffffffffffffffffffffffffffff168152509550610260604051908101604052808581526020018460400151815260200184606001518152602001846080015181526020018460a0015181526020018460c0015181526020018460e00151815260200184610100015181526020018461012001518152602001836020015181526020018360400151815260200183606001518152602001836080015181526020018360a001518152602001826020015181526020018260400151815260200182606001518152602001826080015181526020018260a001518152509450505050509193909250565b600260009054906101000a900473ffffffffffffffffffffffffffffffffffffffff1681565b6000610a3c611195565b610a4461120a565b610a4c61120a565b6000600160009054906101000a900473ffffffffffffffffffffffffffffffffffffffff1673ffffffffffffffffffffffffffffffffffffffff166318160ddd6040518163ffffffff167c010000000000000000000000000000000000000000000000000000000002815260040160206040518083038186803b158015610ad257600080fd5b505afa158015610ae6573d6000803e3d6000fd5b505050506040513d601f19601f82011682018060405250610b0a91908101906114d7565b9050610b14611195565b610b1d87610e21565b9050600160009054906101000a900473ffffffffffffffffffffffffffffffffffffffff1673ffffffffffffffffffffffffffffffffffffffff16636352211e886040518263ffffffff167c0100000000000000000000000000000000000000000000000000000000028152600401610b969190611811565b60206040518083038186803b158015610bae57600080fd5b505afa158015610bc2573d6000803e3d6000fd5b505050506040513d601f19601f82011682018060405250610be691908101906112e4565b81610140019073ffffffffffffffffffffffffffffffffffffffff16908173ffffffffffffffffffffffffffffffffffffffff1681525050610c2661120a565b610c2f88610f99565b9050600260009054906101000a900473ffffffffffffffffffffffffffffffffffffffff1673ffffffffffffffffffffffffffffffffffffffff1663c55d0f56896040518263ffffffff167c0100000000000000000000000000000000000000000000000000000000028152600401610ca89190611811565b60206040518083038186803b158015610cc057600080fd5b505afa158015610cd4573d6000803e3d6000fd5b505050506040513d601f19601f82011682018060405250610cf891908101906114d7565b8160a0018181525050610d0961120a565b610d1289610fd4565b9050600360009054906101000a900473ffffffffffffffffffffffffffffffffffffffff1673ffffffffffffffffffffffffffffffffffffffff1663c55d0f568a6040518263ffffffff167c0100000000000000000000000000000000000000000000000000000000028152600401610d8b9190611811565b60206040518083038186803b158015610da357600080fd5b505afa158015610db7573d6000803e3d6000fd5b505050506040513d601f19601f82011682018060405250610ddb91908101906114d7565b8160a0018181525050839750829650819550809450505050509193509193565b600160009054906101000a900473ffffffffffffffffffffffffffffffffffffffff1681565b610e29611195565b600080600080600080600080600080600160009054906101000a900473ffffffffffffffffffffffffffffffffffffffff1673ffffffffffffffffffffffffffffffffffffffff1663b3a278428d6040518263ffffffff167c0100000000000000000000000000000000000000000000000000000000028152600401610eaf9190611811565b6101406040518083038186803b158015610ec857600080fd5b505afa158015610edc573d6000803e3d6000fd5b505050506040513d601f19601f82011682018060405250610f0091908101906113d3565b9950995099509950995099509950995099509950610f1c611195565b610160604051908101604052808c151581526020018b151581526020018a8152602001898152602001888152602001878152602001868152602001858152602001848152602001838152602001600073ffffffffffffffffffffffffffffffffffffffff168152509050809b505050505050505050505050919050565b610fa161120a565b610fcd82600260009054906101000a900473ffffffffffffffffffffffffffffffffffffffff1661100f565b9050919050565b610fdc61120a565b61100882600360009054906101000a900473ffffffffffffffffffffffffffffffffffffffff1661100f565b9050919050565b61101761120a565b60008060008060008673ffffffffffffffffffffffffffffffffffffffff166378bd7935896040518263ffffffff167c01000000000000000000000000000000000000000000000000000000000281526004016110749190611811565b60a06040518083038186803b15801561108c57600080fd5b505afa1580156110a0573d6000803e3d6000fd5b505050506040513d601f19601f820116820180604052506110c4919081019061135c565b945094509450945094506110d661120a565b60c0604051908101604052808773ffffffffffffffffffffffffffffffffffffffff1681526020018681526020018581526020018481526020018381526020016000815250905080965050505050505092915050565b6040805190810160405280600290602082028038833980820191505090505090565b606060405190810160405280600390602082028038833980820191505090505090565b61026060405190810160405280601390602082028038833980820191505090505090565b610160604051908101604052806000151581526020016000151581526020016000815260200160008152602001600081526020016000815260200160008152602001600081526020016000815260200160008152602001600073ffffffffffffffffffffffffffffffffffffffff1681525090565b60c060405190810160405280600073ffffffffffffffffffffffffffffffffffffffff16815260200160008152602001600081526020016000815260200160008152602001600081525090565b60006112638235611922565b905092915050565b60006112778251611922565b905092915050565b600061128b8251611934565b905092915050565b600061129f8235611940565b905092915050565b60006112b38251611940565b905092915050565b6000602082840312156112cd57600080fd5b60006112db84828501611257565b91505092915050565b6000602082840312156112f657600080fd5b60006113048482850161126b565b91505092915050565b60008060006060848603121561132257600080fd5b600061133086828701611257565b935050602061134186828701611257565b925050604061135286828701611257565b9150509250925092565b600080600080600060a0868803121561137457600080fd5b60006113828882890161126b565b9550506020611393888289016112a7565b94505060406113a4888289016112a7565b93505060606113b5888289016112a7565b92505060806113c6888289016112a7565b9150509295509295909350565b6000806000806000806000806000806101408b8d0312156113f357600080fd5b60006114018d828e0161127f565b9a505060206114128d828e0161127f565b99505060406114238d828e016112a7565b98505060606114348d828e016112a7565b97505060806114458d828e016112a7565b96505060a06114568d828e016112a7565b95505060c06114678d828e016112a7565b94505060e06114788d828e016112a7565b93505061010061148a8d828e016112a7565b92505061012061149c8d828e016112a7565b9150509295989b9194979a5092959850565b6000602082840312156114c057600080fd5b60006114ce84828501611293565b91505092915050565b6000602082840312156114e957600080fd5b60006114f7848285016112a7565b91505092915050565b611509816118da565b82525050565b61151881611892565b61152182611874565b60005b8281101561155357611537858351611500565b611540826118b3565b9150602085019450600181019050611524565b5050505050565b6115638161189d565b61156c8261187e565b60005b8281101561159e576115828583516115f0565b61158b826118c0565b915060208501945060018101905061156f565b5050505050565b6115ae816118a8565b6115b782611888565b60005b828110156115e9576115cd858351611779565b6115d6826118cd565b91506020850194506001810190506115ba565b5050505050565b6115f9816118ec565b82525050565b6116088161194a565b82525050565b6116178161196e565b82525050565b60c0820160008201516116336000850182611500565b5060208201516116466020850182611779565b5060408201516116596040850182611779565b50606082015161166c6060850182611779565b50608082015161167f6080850182611779565b5060a082015161169260a0850182611779565b50505050565b610160820160008201516116af60008501826115f0565b5060208201516116c260208501826115f0565b5060408201516116d56040850182611779565b5060608201516116e86060850182611779565b5060808201516116fb6080850182611779565b5060a082015161170e60a0850182611779565b5060c082015161172160c0850182611779565b5060e082015161173460e0850182611779565b50610100820151611749610100850182611779565b5061012082015161175e610120850182611779565b50610140820151611773610140850182611500565b50505050565b61178281611918565b82525050565b600060208201905061179d6000830184611500565b92915050565b6000610300820190506117b9600083018661155a565b6117c6604083018561150f565b6117d360a08301846115a5565b949350505050565b60006020820190506117f060008301846115ff565b92915050565b600060208201905061180b600083018461160e565b92915050565b60006020820190506118266000830184611779565b92915050565b6000610300820190506118426000830187611779565b61184f6020830186611698565b61185d61018083018561161d565b61186b61024083018461161d565b95945050505050565b6000819050919050565b6000819050919050565b6000819050919050565b600060039050919050565b600060029050919050565b600060139050919050565b6000602082019050919050565b6000602082019050919050565b6000602082019050919050565b60006118e5826118f8565b9050919050565b60008115159050919050565b600073ffffffffffffffffffffffffffffffffffffffff82169050919050565b6000819050919050565b600061192d826118f8565b9050919050565b60008115159050919050565b6000819050919050565b60006119558261195c565b9050919050565b6000611967826118f8565b9050919050565b600061197982611980565b9050919050565b600061198b826118f8565b905091905056fea265627a7a72305820af2b81109cac9cdae7628a11405c53d2f6aecba30d9ece0f7026f7297ca3cde26c6578706572696d656e74616cf50037",
  "source": "pragma solidity >=0.4.21 <0.6.0;\r\npragma experimental ABIEncoderV2;\r\n\r\nimport './i/E.sol';\r\nimport './i/EE.sol';\r\n\r\ncontract Q {\r\n\r\n    address public owner;\r\n\r\n    E public entityContract;\r\n    EE public sellContract;\r\n    EE public seedContract;\r\n\r\n    struct Entity {\r\n        bool isBreeding;\r\n        bool isReady;\r\n        uint256 cooldownIndex;\r\n        uint256 nextActionAt;\r\n        uint256 matingWithId;\r\n        uint256 birthTime;\r\n        uint256 breederId;\r\n        uint256 seederId;\r\n        uint256 generation;\r\n        uint256 dna;\r\n        address owner;\r\n    }\r\n\r\n    struct Auction {\r\n        address seller;\r\n        uint256 startingPrice;\r\n        uint256 endingPrice;\r\n        uint256 duration;\r\n        uint256 startedAt;\r\n        uint256 currentPrice;\r\n    }\r\n\r\n    modifier onlyOwner {\r\n        require(msg.sender == owner);\r\n        _;\r\n    }\r\n\r\n    constructor(address _entity, address _sell, address _seed) public {\r\n        entityContract = E(_entity);\r\n        sellContract = EE(_sell);\r\n        seedContract = EE(_seed);\r\n        owner = msg.sender;\r\n    }\r\n\r\n    function setAddress(address _entity, address _sell, address _seed) external onlyOwner {\r\n        entityContract = E(_entity);\r\n        sellContract = EE(_sell);\r\n        seedContract = EE(_seed);\r\n    }\r\n\r\n    function setOwner(address _owner) external onlyOwner {\r\n        owner = _owner;\r\n    }\r\n\r\n    function selfDestruct() external onlyOwner {\r\n        selfdestruct(msg.sender);\r\n    }\r\n\r\n    function getStruct(uint256 _tokenId) external view returns (\r\n        uint256 totalSupply,\r\n        Entity memory entity,\r\n        Auction memory sell,\r\n        Auction memory seed\r\n    ){\r\n        uint256 tSupply = entityContract.totalSupply();\r\n        Entity memory getEntity = _getEntity(_tokenId);\r\n        getEntity.owner = entityContract.ownerOf(_tokenId);\r\n        Auction memory getAuctionSell = _getAuctionSell(_tokenId);\r\n        getAuctionSell.currentPrice = sellContract.getCurrentPrice(_tokenId);\r\n        Auction memory getAuctionSeed = _getAuctionSeed(_tokenId);\r\n        getAuctionSeed.currentPrice = seedContract.getCurrentPrice(_tokenId);\r\n\r\n        totalSupply = tSupply;\r\n        entity = getEntity;\r\n        sell = getAuctionSell;\r\n        seed = getAuctionSeed;\r\n    }\r\n\r\n    function getArray(uint256 _tokenId) external view returns (\r\n        bool[2] memory one,\r\n        address[3] memory two,\r\n        uint256[19] memory three\r\n    ){\r\n        uint256 totalSupply = entityContract.totalSupply();\r\n        Entity memory getEntity = _getEntity(_tokenId);\r\n        getEntity.owner = entityContract.ownerOf(_tokenId);\r\n        Auction memory getAuctionSell = _getAuctionSell(_tokenId);\r\n        getAuctionSell.currentPrice = sellContract.getCurrentPrice(_tokenId);\r\n        Auction memory getAuctionSeed = _getAuctionSeed(_tokenId);\r\n        getAuctionSeed.currentPrice = seedContract.getCurrentPrice(_tokenId);\r\n        one = [\r\n            getEntity.isBreeding,\r\n            getEntity.isReady\r\n        ];\r\n        two = [\r\n            getEntity.owner,\r\n            getAuctionSell.seller,\r\n            getAuctionSeed.seller\r\n        ];\r\n        three = [\r\n            totalSupply,\r\n            getEntity.cooldownIndex,\r\n            getEntity.nextActionAt,\r\n            getEntity.matingWithId,\r\n            getEntity.birthTime,\r\n            getEntity.breederId,\r\n            getEntity.seederId,\r\n            getEntity.generation,\r\n            getEntity.dna,\r\n            getAuctionSell.startingPrice,\r\n            getAuctionSell.endingPrice,\r\n            getAuctionSell.duration,\r\n            getAuctionSell.startedAt,\r\n            getAuctionSell.currentPrice,\r\n            getAuctionSeed.startingPrice,\r\n            getAuctionSeed.endingPrice,\r\n            getAuctionSeed.duration,\r\n            getAuctionSeed.startedAt,\r\n            getAuctionSeed.currentPrice\r\n        ];\r\n    }\r\n\r\n    function _getEntity(uint256 _tokenId) internal view returns (Entity memory) {\r\n        (\r\n            bool isBreeding,\r\n            bool isReady,\r\n            uint256 cooldownIndex,\r\n            uint256 nextActionAt,\r\n            uint256 matingWithId,\r\n            uint256 birthTime,\r\n            uint256 breederId,\r\n            uint256 seederId,\r\n            uint256 generation,\r\n            uint256 dna\r\n        ) = entityContract.getEntity(_tokenId);\r\n        Entity memory e = Entity(\r\n            isBreeding,\r\n            isReady,\r\n            cooldownIndex,\r\n            nextActionAt,\r\n            matingWithId,\r\n            birthTime,\r\n            breederId,\r\n            seederId,\r\n            generation,\r\n            dna,\r\n            address(0)\r\n        );\r\n        return e;\r\n    }\r\n\r\n    function _getAuctionSell(uint256 _tokenId) internal view returns (Auction memory) {\r\n        return _getAuction(_tokenId, sellContract);\r\n    }\r\n\r\n    function _getAuctionSeed(uint256 _tokenId) internal view returns (Auction memory) {\r\n        return _getAuction(_tokenId, seedContract);\r\n    }\r\n\r\n    function _getAuction(uint256 _tokenId, EE _contract) internal view returns (Auction memory) {\r\n        (\r\n            address seller,\r\n            uint256 startingPrice,\r\n            uint256 endingPrice,\r\n            uint256 duration,\r\n            uint256 startedAt\r\n        ) = _contract.getAuction(_tokenId);\r\n        Auction memory a = Auction(\r\n            seller,\r\n            startingPrice,\r\n            endingPrice,\r\n            duration,\r\n            startedAt,\r\n            uint256(0)\r\n        );\r\n        return a;\r\n    }\r\n\r\n\r\n}\r\n",
  "sourcePath": "D:/work/WebStorm/crypt-oink-query/contracts/Q.sol",
  "compiler": {
    "name": "solc",
    "version": "0.5.0+commit.1d4f565a.Emscripten.clang"
  },
  "schemaVersion": "3.0.6",
  "updatedAt": "2019-04-06T14:26:29.581Z",
  "devdoc": {
    "methods": {}
  },
  "userdoc": {
    "methods": {}
  }
}