{
  "contractName": "Q",
  "abi": [
    {
      "constant": true,
      "inputs": [],
      "name": "seedContract",
      "outputs": [
        {
          "name": "",
          "type": "address"
        }
      ],
      "payable": false,
      "stateMutability": "view",
      "type": "function",
      "signature": "0x63534dd8"
    },
    {
      "constant": true,
      "inputs": [],
      "name": "owner",
      "outputs": [
        {
          "name": "",
          "type": "address"
        }
      ],
      "payable": false,
      "stateMutability": "view",
      "type": "function",
      "signature": "0x8da5cb5b"
    },
    {
      "constant": true,
      "inputs": [],
      "name": "sellContract",
      "outputs": [
        {
          "name": "",
          "type": "address"
        }
      ],
      "payable": false,
      "stateMutability": "view",
      "type": "function",
      "signature": "0xc3d22fb6"
    },
    {
      "constant": true,
      "inputs": [],
      "name": "entityContract",
      "outputs": [
        {
          "name": "",
          "type": "address"
        }
      ],
      "payable": false,
      "stateMutability": "view",
      "type": "function",
      "signature": "0xdc771a41"
    },
    {
      "inputs": [
        {
          "name": "_entity",
          "type": "address"
        },
        {
          "name": "_sell",
          "type": "address"
        },
        {
          "name": "_seed",
          "type": "address"
        }
      ],
      "payable": false,
      "stateMutability": "nonpayable",
      "type": "constructor",
      "signature": "constructor"
    },
    {
      "constant": false,
      "inputs": [
        {
          "name": "_entity",
          "type": "address"
        },
        {
          "name": "_sell",
          "type": "address"
        },
        {
          "name": "_seed",
          "type": "address"
        }
      ],
      "name": "setAddress",
      "outputs": [],
      "payable": false,
      "stateMutability": "nonpayable",
      "type": "function",
      "signature": "0x3be08dab"
    },
    {
      "constant": false,
      "inputs": [
        {
          "name": "_owner",
          "type": "address"
        }
      ],
      "name": "setOwner",
      "outputs": [],
      "payable": false,
      "stateMutability": "nonpayable",
      "type": "function",
      "signature": "0x13af4035"
    },
    {
      "constant": false,
      "inputs": [],
      "name": "selfDestruct",
      "outputs": [],
      "payable": false,
      "stateMutability": "nonpayable",
      "type": "function",
      "signature": "0x9cb8a26a"
    },
    {
      "constant": true,
      "inputs": [
        {
          "name": "_tokenId",
          "type": "uint256"
        }
      ],
      "name": "getStruct",
      "outputs": [
        {
          "name": "totalSupply",
          "type": "uint256"
        },
        {
          "components": [
            {
              "name": "isBreeding",
              "type": "bool"
            },
            {
              "name": "isReady",
              "type": "bool"
            },
            {
              "name": "cooldownIndex",
              "type": "uint256"
            },
            {
              "name": "nextActionAt",
              "type": "uint256"
            },
            {
              "name": "matingWithId",
              "type": "uint256"
            },
            {
              "name": "birthTime",
              "type": "uint256"
            },
            {
              "name": "breederId",
              "type": "uint256"
            },
            {
              "name": "seederId",
              "type": "uint256"
            },
            {
              "name": "generation",
              "type": "uint256"
            },
            {
              "name": "dna",
              "type": "uint256"
            },
            {
              "name": "owner",
              "type": "address"
            }
          ],
          "name": "entity",
          "type": "tuple"
        },
        {
          "components": [
            {
              "name": "seller",
              "type": "address"
            },
            {
              "name": "startingPrice",
              "type": "uint256"
            },
            {
              "name": "endingPrice",
              "type": "uint256"
            },
            {
              "name": "duration",
              "type": "uint256"
            },
            {
              "name": "startedAt",
              "type": "uint256"
            },
            {
              "name": "currentPrice",
              "type": "uint256"
            }
          ],
          "name": "sell",
          "type": "tuple"
        },
        {
          "components": [
            {
              "name": "seller",
              "type": "address"
            },
            {
              "name": "startingPrice",
              "type": "uint256"
            },
            {
              "name": "endingPrice",
              "type": "uint256"
            },
            {
              "name": "duration",
              "type": "uint256"
            },
            {
              "name": "startedAt",
              "type": "uint256"
            },
            {
              "name": "currentPrice",
              "type": "uint256"
            }
          ],
          "name": "seed",
          "type": "tuple"
        }
      ],
      "payable": false,
      "stateMutability": "view",
      "type": "function",
      "signature": "0xcdfa8495"
    },
    {
      "constant": true,
      "inputs": [
        {
          "name": "_tokenId",
          "type": "uint256"
        }
      ],
      "name": "getArray",
      "outputs": [
        {
          "name": "one",
          "type": "bool[2]"
        },
        {
          "name": "two",
          "type": "address[3]"
        },
        {
          "name": "three",
          "type": "uint256[19]"
        }
      ],
      "payable": false,
      "stateMutability": "view",
      "type": "function",
      "signature": "0xab35ec63"
    }
  ],
  "bytecode": "0x60806040523480156200001157600080fd5b5060405160608062001943833981018060405262000033919081019062000155565b82600160006101000a81548173ffffffffffffffffffffffffffffffffffffffff021916908373ffffffffffffffffffffffffffffffffffffffff16021790555081600260006101000a81548173ffffffffffffffffffffffffffffffffffffffff021916908373ffffffffffffffffffffffffffffffffffffffff16021790555080600360006101000a81548173ffffffffffffffffffffffffffffffffffffffff021916908373ffffffffffffffffffffffffffffffffffffffff160217905550336000806101000a81548173ffffffffffffffffffffffffffffffffffffffff021916908373ffffffffffffffffffffffffffffffffffffffff160217905550505050620001df565b60006200014d8251620001cb565b905092915050565b6000806000606084860312156200016b57600080fd5b60006200017b868287016200013f565b93505060206200018e868287016200013f565b9250506040620001a1868287016200013f565b9150509250925092565b600073ffffffffffffffffffffffffffffffffffffffff82169050919050565b6000620001d882620001ab565b9050919050565b61175480620001ef6000396000f3fe608060405260043610610099576000357c0100000000000000000000000000000000000000000000000000000000900463ffffffff16806313af40351461009e5780633be08dab146100c757806363534dd8146100f05780638da5cb5b1461011b5780639cb8a26a14610146578063ab35ec631461015d578063c3d22fb61461019c578063cdfa8495146101c7578063dc771a4114610207575b600080fd5b3480156100aa57600080fd5b506100c560048036036100c09190810190611043565b610232565b005b3480156100d357600080fd5b506100ee60048036036100e99190810190611095565b6102d0565b005b3480156100fc57600080fd5b506101056103f3565b6040516101129190611563565b60405180910390f35b34801561012757600080fd5b50610130610419565b60405161013d9190611510565b60405180910390f35b34801561015257600080fd5b5061015b61043e565b005b34801561016957600080fd5b50610184600480360361017f9190810190611236565b6104b2565b6040516101939392919061152b565b60405180910390f35b3480156101a857600080fd5b506101b161076d565b6040516101be9190611563565b60405180910390f35b3480156101d357600080fd5b506101ee60048036036101e99190810190611236565b610793565b6040516101fe94939291906115b4565b60405180910390f35b34801561021357600080fd5b5061021c6108bd565b604051610229919061157e565b60405180910390f35b6000809054906101000a900473ffffffffffffffffffffffffffffffffffffffff1673ffffffffffffffffffffffffffffffffffffffff163373ffffffffffffffffffffffffffffffffffffffff1614151561028d57600080fd5b806000806101000a81548173ffffffffffffffffffffffffffffffffffffffff021916908373ffffffffffffffffffffffffffffffffffffffff16021790555050565b6000809054906101000a900473ffffffffffffffffffffffffffffffffffffffff1673ffffffffffffffffffffffffffffffffffffffff163373ffffffffffffffffffffffffffffffffffffffff1614151561032b57600080fd5b82600160006101000a81548173ffffffffffffffffffffffffffffffffffffffff021916908373ffffffffffffffffffffffffffffffffffffffff16021790555081600260006101000a81548173ffffffffffffffffffffffffffffffffffffffff021916908373ffffffffffffffffffffffffffffffffffffffff16021790555080600360006101000a81548173ffffffffffffffffffffffffffffffffffffffff021916908373ffffffffffffffffffffffffffffffffffffffff160217905550505050565b600360009054906101000a900473ffffffffffffffffffffffffffffffffffffffff1681565b6000809054906101000a900473ffffffffffffffffffffffffffffffffffffffff1681565b6000809054906101000a900473ffffffffffffffffffffffffffffffffffffffff1673ffffffffffffffffffffffffffffffffffffffff163373ffffffffffffffffffffffffffffffffffffffff1614151561049957600080fd5b3373ffffffffffffffffffffffffffffffffffffffff16ff5b6104ba610eb4565b6104c2610ed6565b6104ca610ef9565b6000600160009054906101000a900473ffffffffffffffffffffffffffffffffffffffff1673ffffffffffffffffffffffffffffffffffffffff166318160ddd6040518163ffffffff167c010000000000000000000000000000000000000000000000000000000002815260040160206040518083038186803b15801561055057600080fd5b505afa158015610564573d6000803e3d6000fd5b505050506040513d601f19601f82011682018060405250610588919081019061125f565b9050610592610f1d565b61059b866108e3565b90506105a5610f92565b6105ae87610b26565b90506105b8610f92565b6105c188610b61565b905060408051908101604052808460000151151515158152602001846020015115151515815250965060606040519081016040528084610140015173ffffffffffffffffffffffffffffffffffffffff1673ffffffffffffffffffffffffffffffffffffffff168152602001836000015173ffffffffffffffffffffffffffffffffffffffff1673ffffffffffffffffffffffffffffffffffffffff168152602001826000015173ffffffffffffffffffffffffffffffffffffffff1673ffffffffffffffffffffffffffffffffffffffff168152509550610260604051908101604052808581526020018460400151815260200184606001518152602001846080015181526020018460a0015181526020018460c0015181526020018460e00151815260200184610100015181526020018461012001518152602001836020015181526020018360400151815260200183606001518152602001836080015181526020018360a001518152602001826020015181526020018260400151815260200182606001518152602001826080015181526020018260a001518152509450505050509193909250565b600260009054906101000a900473ffffffffffffffffffffffffffffffffffffffff1681565b600061079d610f1d565b6107a5610f92565b6107ad610f92565b6000600160009054906101000a900473ffffffffffffffffffffffffffffffffffffffff1673ffffffffffffffffffffffffffffffffffffffff166318160ddd6040518163ffffffff167c010000000000000000000000000000000000000000000000000000000002815260040160206040518083038186803b15801561083357600080fd5b505afa158015610847573d6000803e3d6000fd5b505050506040513d601f19601f8201168201806040525061086b919081019061125f565b9050610875610f1d565b61087e876108e3565b9050610888610f92565b61089188610b26565b905061089b610f92565b6108a489610b61565b9050839750829650819550809450505050509193509193565b600160009054906101000a900473ffffffffffffffffffffffffffffffffffffffff1681565b6108eb610f1d565b600080600080600080600080600080600160009054906101000a900473ffffffffffffffffffffffffffffffffffffffff1673ffffffffffffffffffffffffffffffffffffffff1663b3a278428d6040518263ffffffff167c01000000000000000000000000000000000000000000000000000000000281526004016109719190611599565b6101406040518083038186803b15801561098a57600080fd5b505afa15801561099e573d6000803e3d6000fd5b505050506040513d601f19601f820116820180604052506109c2919081019061115b565b99509950995099509950995099509950995099506000600160009054906101000a900473ffffffffffffffffffffffffffffffffffffffff1673ffffffffffffffffffffffffffffffffffffffff16636352211e8e6040518263ffffffff167c0100000000000000000000000000000000000000000000000000000000028152600401610a4f9190611599565b60206040518083038186803b158015610a6757600080fd5b505afa158015610a7b573d6000803e3d6000fd5b505050506040513d601f19601f82011682018060405250610a9f919081019061106c565b9050610aa9610f1d565b610160604051908101604052808d151581526020018c151581526020018b81526020018a81526020018981526020018881526020018781526020018681526020018581526020018481526020018373ffffffffffffffffffffffffffffffffffffffff168152509050809c50505050505050505050505050919050565b610b2e610f92565b610b5a82600260009054906101000a900473ffffffffffffffffffffffffffffffffffffffff16610b9c565b9050919050565b610b69610f92565b610b9582600360009054906101000a900473ffffffffffffffffffffffffffffffffffffffff16610b9c565b9050919050565b610ba4610f92565b6000600160009054906101000a900473ffffffffffffffffffffffffffffffffffffffff1673ffffffffffffffffffffffffffffffffffffffff16636352211e856040518263ffffffff167c0100000000000000000000000000000000000000000000000000000000028152600401610c1d9190611599565b60206040518083038186803b158015610c3557600080fd5b505afa158015610c49573d6000803e3d6000fd5b505050506040513d601f19601f82011682018060405250610c6d919081019061106c565b9050610c77610f92565b8373ffffffffffffffffffffffffffffffffffffffff168273ffffffffffffffffffffffffffffffffffffffff161415610e5c5760008473ffffffffffffffffffffffffffffffffffffffff1663c55d0f56876040518263ffffffff167c0100000000000000000000000000000000000000000000000000000000028152600401610d029190611599565b60206040518083038186803b158015610d1a57600080fd5b505afa158015610d2e573d6000803e3d6000fd5b505050506040513d601f19601f82011682018060405250610d52919081019061125f565b905060008060008060008973ffffffffffffffffffffffffffffffffffffffff166378bd79358c6040518263ffffffff167c0100000000000000000000000000000000000000000000000000000000028152600401610db19190611599565b60a06040518083038186803b158015610dc957600080fd5b505afa158015610ddd573d6000803e3d6000fd5b505050506040513d601f19601f82011682018060405250610e0191908101906110e4565b9450945094509450945060c0604051908101604052808673ffffffffffffffffffffffffffffffffffffffff168152602001858152602001848152602001838152602001828152602001878152509650505050505050610ea9565b60c060405190810160405280600073ffffffffffffffffffffffffffffffffffffffff16815260200160008152602001600081526020016000815260200160008152602001600081525090505b809250505092915050565b6040805190810160405280600290602082028038833980820191505090505090565b606060405190810160405280600390602082028038833980820191505090505090565b61026060405190810160405280601390602082028038833980820191505090505090565b610160604051908101604052806000151581526020016000151581526020016000815260200160008152602001600081526020016000815260200160008152602001600081526020016000815260200160008152602001600073ffffffffffffffffffffffffffffffffffffffff1681525090565b60c060405190810160405280600073ffffffffffffffffffffffffffffffffffffffff16815260200160008152602001600081526020016000815260200160008152602001600081525090565b6000610feb82356116aa565b905092915050565b6000610fff82516116aa565b905092915050565b600061101382516116bc565b905092915050565b600061102782356116c8565b905092915050565b600061103b82516116c8565b905092915050565b60006020828403121561105557600080fd5b600061106384828501610fdf565b91505092915050565b60006020828403121561107e57600080fd5b600061108c84828501610ff3565b91505092915050565b6000806000606084860312156110aa57600080fd5b60006110b886828701610fdf565b93505060206110c986828701610fdf565b92505060406110da86828701610fdf565b9150509250925092565b600080600080600060a086880312156110fc57600080fd5b600061110a88828901610ff3565b955050602061111b8882890161102f565b945050604061112c8882890161102f565b935050606061113d8882890161102f565b925050608061114e8882890161102f565b9150509295509295909350565b6000806000806000806000806000806101408b8d03121561117b57600080fd5b60006111898d828e01611007565b9a5050602061119a8d828e01611007565b99505060406111ab8d828e0161102f565b98505060606111bc8d828e0161102f565b97505060806111cd8d828e0161102f565b96505060a06111de8d828e0161102f565b95505060c06111ef8d828e0161102f565b94505060e06112008d828e0161102f565b9350506101006112128d828e0161102f565b9250506101206112248d828e0161102f565b9150509295989b9194979a5092959850565b60006020828403121561124857600080fd5b60006112568482850161101b565b91505092915050565b60006020828403121561127157600080fd5b600061127f8482850161102f565b91505092915050565b61129181611662565b82525050565b6112a08161161a565b6112a9826115fc565b60005b828110156112db576112bf858351611288565b6112c88261163b565b91506020850194506001810190506112ac565b5050505050565b6112eb81611625565b6112f482611606565b60005b828110156113265761130a858351611378565b61131382611648565b91506020850194506001810190506112f7565b5050505050565b61133681611630565b61133f82611610565b60005b8281101561137157611355858351611501565b61135e82611655565b9150602085019450600181019050611342565b5050505050565b61138181611674565b82525050565b611390816116d2565b82525050565b61139f816116f6565b82525050565b60c0820160008201516113bb6000850182611288565b5060208201516113ce6020850182611501565b5060408201516113e16040850182611501565b5060608201516113f46060850182611501565b5060808201516114076080850182611501565b5060a082015161141a60a0850182611501565b50505050565b610160820160008201516114376000850182611378565b50602082015161144a6020850182611378565b50604082015161145d6040850182611501565b5060608201516114706060850182611501565b5060808201516114836080850182611501565b5060a082015161149660a0850182611501565b5060c08201516114a960c0850182611501565b5060e08201516114bc60e0850182611501565b506101008201516114d1610100850182611501565b506101208201516114e6610120850182611501565b506101408201516114fb610140850182611288565b50505050565b61150a816116a0565b82525050565b60006020820190506115256000830184611288565b92915050565b60006103008201905061154160008301866112e2565b61154e6040830185611297565b61155b60a083018461132d565b949350505050565b60006020820190506115786000830184611387565b92915050565b60006020820190506115936000830184611396565b92915050565b60006020820190506115ae6000830184611501565b92915050565b6000610300820190506115ca6000830187611501565b6115d76020830186611420565b6115e56101808301856113a5565b6115f36102408301846113a5565b95945050505050565b6000819050919050565b6000819050919050565b6000819050919050565b600060039050919050565b600060029050919050565b600060139050919050565b6000602082019050919050565b6000602082019050919050565b6000602082019050919050565b600061166d82611680565b9050919050565b60008115159050919050565b600073ffffffffffffffffffffffffffffffffffffffff82169050919050565b6000819050919050565b60006116b582611680565b9050919050565b60008115159050919050565b6000819050919050565b60006116dd826116e4565b9050919050565b60006116ef82611680565b9050919050565b600061170182611708565b9050919050565b600061171382611680565b905091905056fea265627a7a723058207d152c71db84e238c61b65a232c584853d84003744b6873d3335dbe7da8c6ad76c6578706572696d656e74616cf50037",
  "source": "pragma solidity >=0.4.21 <0.6.0;\r\npragma experimental ABIEncoderV2;\r\n\r\nimport './i/E.sol';\r\nimport './i/EE.sol';\r\n\r\ncontract Q {\r\n\r\n    address public owner;\r\n\r\n    E public entityContract;\r\n    EE public sellContract;\r\n    EE public seedContract;\r\n\r\n    struct Entity {\r\n        bool isBreeding;\r\n        bool isReady;\r\n        uint256 cooldownIndex;\r\n        uint256 nextActionAt;\r\n        uint256 matingWithId;\r\n        uint256 birthTime;\r\n        uint256 breederId;\r\n        uint256 seederId;\r\n        uint256 generation;\r\n        uint256 dna;\r\n        address owner;\r\n    }\r\n\r\n    struct Auction {\r\n        address seller;\r\n        uint256 startingPrice;\r\n        uint256 endingPrice;\r\n        uint256 duration;\r\n        uint256 startedAt;\r\n        uint256 currentPrice;\r\n    }\r\n\r\n    modifier onlyOwner {\r\n        require(msg.sender == owner);\r\n        _;\r\n    }\r\n\r\n    constructor(address _entity, address _sell, address _seed) public {\r\n        entityContract = E(_entity);\r\n        sellContract = EE(_sell);\r\n        seedContract = EE(_seed);\r\n        owner = msg.sender;\r\n    }\r\n\r\n    function setAddress(address _entity, address _sell, address _seed) external onlyOwner {\r\n        entityContract = E(_entity);\r\n        sellContract = EE(_sell);\r\n        seedContract = EE(_seed);\r\n    }\r\n\r\n    function setOwner(address _owner) external onlyOwner {\r\n        owner = _owner;\r\n    }\r\n\r\n    function selfDestruct() external onlyOwner {\r\n        selfdestruct(msg.sender);\r\n    }\r\n\r\n    function getStruct(uint256 _tokenId) external view returns (\r\n        uint256 totalSupply,\r\n        Entity memory entity,\r\n        Auction memory sell,\r\n        Auction memory seed\r\n    ){\r\n        uint256 tSupply = entityContract.totalSupply();\r\n        Entity memory getEntity = _getEntity(_tokenId);\r\n        Auction memory getAuctionSell = _getAuctionSell(_tokenId);\r\n        Auction memory getAuctionSeed = _getAuctionSeed(_tokenId);\r\n\r\n        totalSupply = tSupply;\r\n        entity = getEntity;\r\n        sell = getAuctionSell;\r\n        seed = getAuctionSeed;\r\n    }\r\n\r\n    function getArray(uint256 _tokenId) external view returns (\r\n        bool[2] memory one,\r\n        address[3] memory two,\r\n        uint256[19] memory three\r\n    ){\r\n        uint256 totalSupply = entityContract.totalSupply();\r\n        Entity memory getEntity = _getEntity(_tokenId);\r\n        Auction memory getAuctionSell = _getAuctionSell(_tokenId);\r\n        Auction memory getAuctionSeed = _getAuctionSeed(_tokenId);\r\n        one = [\r\n            getEntity.isBreeding,\r\n            getEntity.isReady\r\n        ];\r\n        two = [\r\n            getEntity.owner,\r\n            getAuctionSell.seller,\r\n            getAuctionSeed.seller\r\n        ];\r\n        three = [\r\n            totalSupply,\r\n            getEntity.cooldownIndex,\r\n            getEntity.nextActionAt,\r\n            getEntity.matingWithId,\r\n            getEntity.birthTime,\r\n            getEntity.breederId,\r\n            getEntity.seederId,\r\n            getEntity.generation,\r\n            getEntity.dna,\r\n            getAuctionSell.startingPrice,\r\n            getAuctionSell.endingPrice,\r\n            getAuctionSell.duration,\r\n            getAuctionSell.startedAt,\r\n            getAuctionSell.currentPrice,\r\n            getAuctionSeed.startingPrice,\r\n            getAuctionSeed.endingPrice,\r\n            getAuctionSeed.duration,\r\n            getAuctionSeed.startedAt,\r\n            getAuctionSeed.currentPrice\r\n        ];\r\n    }\r\n\r\n    function _getEntity(uint256 _tokenId) internal view returns (Entity memory) {\r\n        (\r\n            bool isBreeding,\r\n            bool isReady,\r\n            uint256 cooldownIndex,\r\n            uint256 nextActionAt,\r\n            uint256 matingWithId,\r\n            uint256 birthTime,\r\n            uint256 breederId,\r\n            uint256 seederId,\r\n            uint256 generation,\r\n            uint256 dna\r\n        ) = entityContract.getEntity(_tokenId);\r\n        address ownerOf = entityContract.ownerOf(_tokenId);\r\n        Entity memory e = Entity(\r\n            isBreeding,\r\n            isReady,\r\n            cooldownIndex,\r\n            nextActionAt,\r\n            matingWithId,\r\n            birthTime,\r\n            breederId,\r\n            seederId,\r\n            generation,\r\n            dna,\r\n            ownerOf\r\n        );\r\n        return e;\r\n    }\r\n\r\n    function _getAuctionSell(uint256 _tokenId) internal view returns (Auction memory) {\r\n        return _getAuction(_tokenId, sellContract);\r\n    }\r\n\r\n    function _getAuctionSeed(uint256 _tokenId) internal view returns (Auction memory) {\r\n        return _getAuction(_tokenId, seedContract);\r\n    }\r\n\r\n    function _getAuction(uint256 _tokenId, EE _contract) internal view returns (Auction memory) {\r\n        address ownerOf = entityContract.ownerOf(_tokenId);\r\n        Auction memory a;\r\n        if (ownerOf == address(_contract)) {\r\n            uint256 currentPrice = _contract.getCurrentPrice(_tokenId);\r\n            (\r\n            address seller,\r\n            uint256 startingPrice,\r\n            uint256 endingPrice,\r\n            uint256 duration,\r\n            uint256 startedAt\r\n            ) = _contract.getAuction(_tokenId);\r\n            a = Auction(\r\n                seller,\r\n                startingPrice,\r\n                endingPrice,\r\n                duration,\r\n                startedAt,\r\n                currentPrice\r\n            );\r\n        } else {\r\n            a = Auction(\r\n                address(0),\r\n                uint256(0),\r\n                uint256(0),\r\n                uint256(0),\r\n                uint256(0),\r\n                uint256(0)\r\n            );\r\n        }\r\n        return a;\r\n    }\r\n\r\n\r\n}\r\n",
  "sourcePath": "D:/work/WebStorm/crypt-oink-query/contracts/Q.sol",
  "compiler": {
    "name": "solc",
    "version": "0.5.0+commit.1d4f565a.Emscripten.clang"
  },
  "schemaVersion": "3.0.6",
  "updatedAt": "2019-04-07T04:04:33.423Z",
  "devdoc": {
    "methods": {}
  },
  "userdoc": {
    "methods": {}
  }
}